:020000040800F2
:10000000C8060020C101000843360008113100086D
:10001000413600089D0E0008214100080000000044
:100020000000000000000000000000008939000806
:10003000A110000800000000453600088B390008B8
:10004000DB010008DB010008DB010008DB01000820
:10005000DB01000847360008A3100008DB01000898
:10006000DB010008DB010008DB010008DB01000800
:10007000DB010008DB010008DB010008DB010008F0
:10008000210F0008DB010008F10C0008DB0100086B
:10009000DB010008DB010008DB010008DB010008D0
:1000A000DB010008DB010008DB010008DB010008C0
:1000B000313A0008DB0100083D3A0008DB01000886
:1000C000DB010008DB010008DB01000849360008FD
:1000D000DB010008DB01000815410008DB01000816
:1000E000DB010008DB010008DB010008DB01000880
:1000F000DB010008DB010008DB010008DB01000870
:10010000DB010008DB010008DB010008DB0100085F
:10011000DB010008DB010008DB010008DB0100084F
:10012000DB010008DB010008DB010008DB0100083F
:10013000DB010008DB010008DB010008DB0100082F
:10014000DB010008DB010008DB010008DB0100081F
:10015000DB010008DB010008DB010008DB0100080F
:10016000DB010008DB010008DB010008DB010008FF
:10017000DB010008DB010008DB01000800000000D3
:10018000DB010008DB010008DB010008DB010008DF
:10019000DB010008DB010008DB010008DB010008CF
:1001A000DB010008DB010008DB010008DFF80CD0F0
:1001B00000F0A0FB00480047F94B0008C8060020EB
:1001C0000648804706480047FEE7FEE7FEE7FEE7F1
:1001D000FEE7FEE7FEE7FEE7FEE7FEE7153A00086A
:1001E000AD0100082DE9F05F0546002092469B46D0
:1001F00088460646814640241BE02846414647463D
:10020000224600F0A9F953465A46C01A914110D32C
:1002100011461846224600F090F92D1A67EB0108A6
:100220004F4622460120002100F087F917EB000914
:100230004E41201EA4F10104DFDC484631462A4627
:100240004346BDE8F09FD2B201E000F8012B491E01
:10025000FBD270470022F6E710B513460A46044663
:100260001946FFF7F0FF204610BD00000FB400B59F
:1002700089B00BA800906A4603480A9900F08AF9F1
:1002800009B05DF814FB0000680000202DE9FF5F55
:100290001D464FF0FF3BD5E9014691465F464FF0C2
:1002A0000008A9697F1C01988847296A8246884707
:1002B0000028F6D1BAF1FF3F0CD024F4C064002E20
:1002C00019DD600614D5BAF12B0F09D0BAF12D0F44
:1002D0000ED103E0584604B0BDE8F09F44F48064BA
:1002E000A9697F1C01988847761E8246002E02DD90
:1002F000BAF1300F03D0B9F1000F26D032E0A9696E
:10030000761E44F400747F1C019888478246002EB4
:1003100005DDBAF1780F06D0BAF1580F03D0B9F164
:10032000000F10D01EE0B9F1000F02D0B9F1100F8C
:1003300018D1A969761E24F400747F1C019888479F
:100340008246102002E0082000E00A20814609E0F1
:1003500008FB0908A969761E44F400747F1C019803
:1003600088478246002E05DD4946504600F004F9D4
:100370000028EDDAE96901988847A00502D46FF0FA
:100380000100A8E7E00725D1600613D5600502D576
:10039000C8F1000000E0404629680A1D2A6009688B
:1003A000220501D5087015E0220701D5088011E06B
:1003B00008600FE02868011D29600068210502D54A
:1003C00080F8008006E0210702D5A0F8008001E057
:1003D000C0F8008038467EE72DE9F04D81EA03043D
:1003E00004F0004B21F0004514464FF0000A23F0C2
:1003F000004150EA050220D054EA01021DD0C5F3A5
:100400000A570246C5F31303C1F31300C1F30A569A
:1004100040F4801543F48013A7EB0608101BD64662
:1004200008F2FD3873EB050002D308F1010801E082
:1004300092185B41B8F1000F03DA00200146BDE8D5
:10044000F08D00204FF48011064684460EE0171B05
:1004500073EB050705D3121B63EB050306434CEA58
:10046000010C49084FEA300092185B4150EA01073D
:10047000EDD152EA030012D082EA040083EA0501BA
:10048000084305D0101BAB4106D20122002306E031
:1004900000224FF0004302E06FF0010253101AEB0C
:1004A00006004CEB085110EB0A0041EB0B01BDE8D4
:1004B000F04D00F079B80EB540F2334102910021C1
:1004C000CDE900110A460B4600F07DF803B000BDEF
:1004D00070B5C1F30A5201F000450024C1F31301C5
:1004E00040F2FF3341F480119A4201DA002070BDDE
:1004F00040F233439A42A2F2334203DC524200F00C
:100500002BF800E090402C43F1D0404270BD30B554
:100510000B46014600202022012409E021FA02F5C1
:100520009D4205D303FA02F5491B04FA02F528445B
:10053000151EA2F10102F1DC30BD202A04DB203AB5
:1005400000FA02F1002070479140C2F1200320FA26
:1005500003F3194390407047202A04DB203A21FA24
:1005600002F00021704721FA02F3D040C2F12002CC
:1005700091400843194670473A2800D2303820F09D
:100580002002412A01D3A2F13700884201D34FF063
:10059000FF307047024B9361024BD36100F0EAB920
:1005A000694A00083509000810B5141E73F10004EB
:1005B00008DA401C41F1000192185B411A4301D155
:1005C00020F0010010BD2DE9F04D92469B4611B17F
:1005D000B1FA81F202E0B0FA80F220329046FFF7E1
:1005E000ACFF04460F4640EA0A0041EA0B015346BD
:1005F0005A46084313D0114653EA010019D0C8F1F6
:1006000040025046FFF7A8FF05460E4650465946A1
:100610004246FFF792FF084305D0012004E0204640
:100620003946BDE8F08D0020054346EAE0762C43CC
:1006300037430A986305E40AA0EB08000022FD0A8C
:1006400044EA47540A3002D500200146E9E7010593
:1006500010196941DDE9084500196941BDE8F04D0F
:10066000A2E72DE9FE4F804681EA0300C00F0C4649
:10067000009021F0004123F00045B8EB0200A941B1
:1006800005D24046214690461C460B46024623F0C2
:100690000040104347D0270DC7F30A00C3F30A51A7
:1006A0000290401A019040286BDAC3F3130040F423
:1006B000801B0098924620B10023D2EB030A63EB23
:1006C0000B0B01985946C0F140025046FFF735FF29
:1006D00006460D4650465946019A00F033F910EB94
:1006E00008006141002487EA115284EAE7731A4343
:1006F00040D0009A62B3019A012A4FEA075215DCF2
:10070000001B61EB02014FF0004202EA0752CDE903
:100710000042001C41F5801132462B46FFF753FF83
:1007200003B0BDE8F08F40462146F9E7001B61EBBE
:100730000201001C41F5801300185B412018A2F54E
:10074000001747EB030140EAD570B6196D4111E07F
:100750006D084FEA360645EAC0754FEA0752001B9E
:1007600061EB0201001C41F5801149084FEA30009D
:100770000019514132462B4603B0BDE8F04FFFF758
:1007800013BF0098012240000023D0EB020263EB6C
:10079000E073009821464FEAE074B8EB000061EB8B
:1007A0000401E9E783F000435BE781F0004158E78B
:1007B0002DE9FE4F81EA030404F0004421F00041DA
:1007C00000944FF0000B23F0004350EA01045ED088
:1007D00052EA03045BD0C3F30A54C1F30A552C4414
:1007E000A4F2F3340194A0FB0254C1F3130141F4C9
:1007F0008011C3F3130343F4801301FB024400FB95
:10080000034E840A970A44EA815447EA8357A4FBBB
:10081000076802958D0A05FB07854FEA932C04FBB8
:100820000C542705029D4FEA065847EA1637B5EBE8
:1008300008056EEB070C870E920E47EA811742EA15
:100840008312A7FB0201B6EB0B0164EB00042B0D36
:1008500043EA0C335E1844EB1C50DA465146E7FB82
:100860000201C5F313044FEA0B3343EA14534FEA72
:100870000432019C43EA0603A4F10C040294009C98
:10088000CDE900B4FFF79FFE03B0BDE8F08F002074
:100890000146F9E7C1F30A52C1F3130140F2FF33F5
:1008A00041F480119A4202DA00200146704740F27A
:1008B00033439A42A2F2334202DC5242FFF74CBE6B
:1008C000FFF73BBE30B5041E71F1000404DB4FF0AE
:1008D0000044404264EB0101141E73F1000405DB87
:1008E0001C464FF00043524263EB0403994208BF99
:1008F000904230BD064C074D06E0E06840F0010331
:1009000094E8070098471034AC42F6D3FFF752FC46
:100910001851000838510008094910B508784C1CD6
:1009200018B1401E0870205C10BD00210720ABBE2E
:10093000207010BD02490878421C0A707047000000
:1009400070000020202A06DBCB17203A41FA02F083
:1009500043EAE07306E041FA02F3D040C2F120021C
:1009600091400843194670470268114413780160AA
:1009700018467047D1600449516104491162002151
:100980001161114600F00AB86909000891090008D0
:10099000C0B24FF4F05100F097B900002DE9F34FC9
:1009A0008BB04FF0000801F10C000C464FF0010B2A
:1009B00046460DF1080A01906269012101989047AD
:1009C000051E2DD0252D2CD0216A8847C0B1626923
:1009D000012101989047216A88470028F7D1411EDC
:1009E00062690198904700E0761CA1690B988847DE
:1009F000216A88470028F7D1E1690B988847DBE72F
:100A0000A1690B9888470746A84201D1761CD3E715
:100A1000E1690B9888477F1C02D1B8F1000F6FD0B5
:100A200046E1002762693D463946019890472A28E9
:100A300004D162690121019890470125DFF8849271
:100A40006269012101989047A0F130010A290AD278
:100A50004F45E5DC07EB870100EB4107303FDFD472
:100A600045F01005ECE7E90601D46FF000476C286B
:100A70000AD04C2814D0682815D06A280DD07428C4
:100A80001CD07A281AD01DE0626901210198904794
:100A90006C2802D045F0040514E045F002050DE095
:100AA00045F020050AE06269012101989047682815
:100AB00002D045F0080505E045F4006562690121B2
:100AC00001989047C4E9015765283DD019DC5828A2
:100AD0007AD00CDC452837D004DC252826D04128E4
:100AE00031D131E046282FD047282CD12CE05B288B
:100AF00077D0612828D063287CD0642823D15AE09D
:100B0000D0E06F2848D008DC66281DD067281BD0AD
:100B1000692821D06E2816D127E0702845D0732887
:100B200068D0752847D078280DD14DE0A1690B9881
:100B30008847054625283FF469AFE1690B98884747
:100B40006D1C3FF46AAFB3E023466A466FF00100C4
:100B50000B99AFF300809EE045F040006060A8076D
:100B600023464FF0000236D43EE0E8077FF447AF5B
:100B70002068011D21600068290501D506701BE76A
:100B8000290701D5068017E7A90703D5F117C0E9A2
:100B9000006111E706600FE745F040006060A807BC
:100BA00023464FF0080216D41EE040F60E0125EA57
:100BB0000100606016E045F040006060A807234631
:100BC0004FF00A0207D40FE045F040006060A8072C
:100BD00008D5234610226FF001000B99AFF3008077
:100BE00059E007E0234610226FF001000B99FFF750
:100BF0004DFB50E04FF000094F464B46632802D0B2
:100C00005B2806D040E0E80601D40120A06001275F
:100C10003AE062690121019890475E2805D14FF0C2
:100C200001096269494601989047216939B9002153
:100C30000A46534643F82120491C0829FADBB0B381
:100C4000216969B9C11700EBD16253110AEB830125
:100C500022F01F02821A01200B68904003430B60B0
:100C600062690121019890475D28E8D1B9F1000F30
:100C700009D00020514651F82020D24341F82020CD
:100C8000401C0828F7DB02AB224600976FF00100FA
:100C90000B99AFF3008000280CDA401C08D1BBF19F
:100CA000000F05D04FF0FF300DB0BDE8F08FFFE72B
:100CB0004046F9E7E90701D108F1010806444FF081
:100CC000000B79E6CCCCCC0C7F2801D9002208E0BF
:100CD000064A02EB5002C007127800D1120902F056
:100CE0000F0201209040084070470000C4500008E7
:100CF000014800F0EDBA000074000020464910B52C
:100D00004A6822F440324A604A6843681A434A609B
:100D100001684A6822F480724A6001684A6803697F
:100D200042EA03224A6001684A6822F040724A603F
:100D300001684A6883681A434A6001688A6822F435
:100D400000628A6001688A68C3681A438A60816A9F
:100D50006FF07062D14201688A6822F070628A6026
:100D600001688A680CD0836A1A438A6001688A68BD
:100D700022F040528A6001688A68C36A1A4301E01F
:100D800022F040528A6001688A6822F002028A607A
:100D900001688A68037E42EA43028A6090F8201064
:100DA000002901684A680FD042F400624A60016875
:100DB0004A6822F460424A6001684A68174C436AF4
:100DC00004EB43331A4301E022F400624A600168F5
:100DD000CA6A22F47002CA620168CA6A838B104C24
:100DE00004EB03531A43CA6201688A6822F4007252
:100DF0008A6001688A6890F8303042EA43228A604B
:100E000001688A6822F480628A6001688A684069A1
:100E100042EA8020886010BD0023014000E0FFFF0F
:100E20000000F0FF124810B50269016B91421ED11B
:100E30004269416B91421AD18269816B914216D10C
:100E40000021C163012291030A4800F043FE012101
:100E5000084603F0C3FE08A003F0B6FE0BA003F0A3
:100E600061F9BDE810404FF47A7000F0FBBC10BD92
:100E700000000020000402402020212120414C419C
:100E8000524D2E2021212020000000002121204150
:100E90004C41524D2E20212120200A00FEE7000067
:100EA00070B50122084D94032146284600F012FE39
:100EB0004FF47A7000F0D6FC21462846BDE8704019
:100EC000002200F007BE00000004024010B501211E
:100ED000022003F083FE10A003F076FE0921022019
:100EE00003F07CFE202003F04FFE0C21022003F0D3
:100EF00075FE202003F048FE0F21022003F06EFE55
:100F0000202003F041FE1021022003F067FEBDE81F
:100F10001040202003F038BE202020202020000098
:100F2000014800F065BB000068020020016818233A
:100F3000CAB2103AB2FBF3F2054B6FF30901032A70
:100F40009B5CC36500D9091D816508467047000098
:100F5000A450000810B5014600208B698A6A4FF042
:100F6000C07453B1B3F5005F15D072B1012A0CD033
:100F7000022A0AD0032A09D104E01AB1012A06D0B4
:100F8000022A03D1C96AC90100D5012010BDC96A6E
:100F9000A142FAD010BD002AF7D0012AF2D0022ACD
:100FA000F3D0032AF3D010BD10B5194CE06908281E
:100FB00009D2DFE800F02304061B1D1F212315A022
:100FC00000E019A020620121084603F007FE206A14
:100FD00003F0FAFDE069072812D014DD4FF0070195
:100FE00090FBF1F201FB1200E06110BD13A0E9E7F4
:100FF00017A0E7E71BA0E5E71FA0E3E723A0E1E7D1
:101000004FF00000F0E70028EFD14FF00100EBE7D0
:101010000000002020202020204D6F6E6461792088
:101020002020202000000000202020202054756572
:1010300073646179202020200000000020202020FF
:101040005765646E6573646179202020000000009C
:10105000202020205468757273646179202020203C
:101060000000000020202020204672696461792061
:1010700020202020000000002020202053617475D3
:1010800072646179202020200000000020202020B0
:101090002053756E6461792020202020000000001C
:1010A0007047012000F014BC7047704778B50024E9
:1010B000009490F83C20012A19D0012280F83C20AD
:1010C0000A6807230568092A13D9EE680A3A02EB71
:1010D000420293409E43EE600B788A680A3B03EB22
:1010E00043039A400368DD682A43DA6010E0022077
:1010F00078BD2E6902EB420293409E432E610B782D
:101100008A6803EB43039A4003681D692A431A6106
:101110004A681F23072A13D205686E6B521E02EB22
:10112000820293409E436E630A8893B20A79521EEC
:1011300002EB820293400268556B2B43536327E016
:1011400005680D2A12D22E6BD21F02EB8202934049
:101150009E432E630B790A88DB1F92B203EB830355
:101160009A4003681D6B2A431A6311E0EE6A0D3A38
:1011700002EB820293409E43EE620B790A880D3B9C
:1011800092B203EB83039A400368DD6A2A43DA6272
:101190001B4B0568194A9D420AD10D68122D07D1D3
:1011A000556825F400055560556845F4800555607F
:1011B00005689D421DD1134D0B68AB4201D0112B28
:1011C00017D1536823F480035360536843F400033A
:1011D00053600968A9420CD10B490C4A0968B1FB5C
:1011E000F2F101EB8101490000E0491E0091002964
:1011F000FBD180F83C40002078BD00000023014076
:1012000000200140120000106400002040420F0046
:1012100010B5274C03202DED028B616C9FED258BC3
:1012200091FBF0F200FB1212012A0FD091FBF0F2B9
:1012300000FB1212022A19D091FBF0F200FB1210EF
:1012400020B300206081BDEC028B10BD1B4800F074
:101250003CF880B26081401CFFF72DF953EC182B4D
:10126000FFF7BAF8FFF734F96062ECE7134800F0D3
:101270002CF880B26081401CFFF71DF953EC182B4D
:10128000FFF7AAF8FFF724F9A062DCE70B4800F0AB
:101290001CF880B26081401CFFF70DF99FED081B20
:1012A00053EC112BFFF798F8FFF712F9E062CAE749
:1012B0000000002011111111111151407400002083
:1012C000555555555555654070470068C06C704779
:1012D00070B50446006801684268C1F34001C2F37A
:1012E000401251B34AB3216CC90603D4216C41F4B6
:1012F00000712164816811F0405F17D1217EA9B986
:10130000C16A11F4700F02D0816849050ED441689A
:1013100021F020014160206C20F480702064206C5A
:10132000C00403D4206C40F0010020642046FFF785
:101330006FFF21686FF01200086020680168426842
:10134000C1F38001C2F3C01289B382B3216CC90614
:1013500003D4216C41F400512164816811F4401FD1
:101360001ED1816B11F4401F02D08168490517D44A
:101370004168490514D4816811F0405F10D1217E85
:1013800071B9416821F080014160206C20F48050E7
:101390002064206CC00503D4206C40F00100206460
:1013A0002046FFF782FE21686FF00C00086020687D
:1013B0000168426811F0010FC2F380120ED06AB1C9
:1013C0000068C0070AD0206C40F4803020642046BA
:1013D00000F046F821686FF001000860206801689D
:1013E0004268C1F34011C2F3806200290DD0002A87
:1013F0000BD0616C41F0020161646FF02005056063
:101400002046FFF761FF2068056070BD70B50400DD
:101410004FF0000503D0206C002610B107E001203A
:1014200070BD204600F01EF8666484F83C60206CB5
:10143000C00610D4206C20F4885040F002002064D4
:101440002046FFF75BFC6664206C20F0020040F051
:101450000100206400E0012584F83C60284670BD4E
:101460007047000010B586B0044614216846FEF7A8
:10147000F1FE15492068884224D1144800210268F1
:1014800042F480720260006800F4807005900F489A
:101490001438026842F001020260006800F00100A6
:1014A0000590022000900320CDE90101694608481B
:1014B00000F01AFA00221146122000F065FD1220F9
:1014C00000F054FD06B010BD002001404438024039
:1014D0000000024018B50021009190F83C20012A3C
:1014E00007D0012280F83C2002689368DB0702D015
:1014F00011E0022018BD936843F0010393602C4A69
:101500002C4B1268B2FBF3F202EB420200E0521ED7
:101510000092002AFBD102689368DB0746D0036C77
:1015200040F20164A34343F48073036453685B0592
:1015300005D5036C23F4005343F480530364036C18
:10154000DB0404D5436C23F00603436400E04164EC
:1015500080F83C10184B6FF02201116001684A6856
:10156000164C22434A6059680068CA06144906D0DE
:1015700088421BD1816811F0405F13D016E0884289
:10158000F8D0104A904203D1D1F80423D206F1D00A
:101590000D4A90420AD1D1F8041301F01F0110291D
:1015A000E8D303E0816841F080418160002018BDEC
:1015B0006400002040420F0000230140200000048E
:1015C00000200140002101400022014090F8351028
:1015D000022903D08021416501207047052180F850
:1015E00035100068016821F001010160002070479A
:1015F0002DE9F84304464FF00009CDF80090634808
:101600004FF41651A56D0068B0FBF1F72E6894F801
:101610005C10082000FA01F131420FD021680A68FD
:1016200052070BD50A6822F004020A6094F85C1095
:101630008840A860606D40F00100606594F85C101F
:101640004FF0010808FA01F0304208D021684969DA
:10165000090604D5A860606D40F00200606594F84A
:101660005C1004208840304208D02168096889074E
:1016700004D5A860606D40F00400606594F85C10CB
:1016800010208840304218D021680968090714D515
:10169000A86020680168490304D50068000308D5E4
:1016A000A16C07E00168C90503D4016821F00801B5
:1016B0000160216C09B12046884794F85C10202015
:1016C0008840304231D021680968C9062DD5A8600C
:1016D00094F8350005282068016806D0490347D5ED
:1016E000006800031DD4616C1CE021F0160101604C
:1016F0002068416921F080014161206C08B9A06C2B
:1017000020B12068016821F00801016094F85C10A4
:101710003F208840A86084F8349084F83580216D9B
:101720001FE0E16B09B120468847606D00282BD08F
:10173000606DC00714D0052084F83500206801686A
:1017400021F0010101600098401C0090B84203D8CC
:1017500020680068C007F6D184F8349084F835809A
:10176000E16C002910D001B02046BDE8F0430847E5
:101770000168C905D5D4016821F01001016084F821
:10178000349084F83580CCE7BDE8F883640000200D
:101790002DE9F041044600F0A3F906465CB10025AE
:1017A00084F83450022084F835002068016821F064
:1017B000010101600DE00120BDE8F08100F090F929
:1017C000801B052805D920206065032084F835009A
:1017D000F2E720680068C007F0D12268116820484D
:1017E0000140D4E901031843D4E9033633431843D5
:1017F00063691843A3691843E3691843236A1843CC
:101800000843616A042903D1D4E90B13194308433F
:10181000106020684069666A20F0070130460E4378
:10182000012704280CD1A06A0643E06A40B1204693
:10183000FFF790FB20B14020606584F83570BAE76F
:10184000206846612046FFF771FB94F85C203F2139
:1018500091408160656584F835700020ACE7000038
:101860003F8010F070B5044600F03AF90546601C60
:1018700002D004480078044400F032F9401BA04232
:10188000FAD370BD5800002070B50D4800250560E2
:1018900001210C4800F012F90B4C20B1206C401CC7
:1018A000C4E90F5070BD4FF48051084800F006F9AC
:1018B0000028F7D0606CE563401C606470BD0000D8
:1018C0002408004000000240000000200004024004
:1018D000044910B50A68024202D00860FFF7D4FF3D
:1018E00010BD0000143C01402DE9F84F00224FF0DC
:1018F000010803254FF00F0E0B6808FA02F423408D
:10190000A3426ED14E68012E05D0022E03D0112EB7
:1019100001D0122E12D186684FEA420C05FA0CF75C
:10192000BE43CF6807FA0CF7374387604668A64383
:101930000C79C4F30014944034434460C6685700E3
:1019400005FA07FC8C6826EA0C06BC403443C460E8
:101950004C68022C01D0122C13D1D40800EB840463
:10196000A346D4F8209054074FEAD46A0EFA0AF638
:1019700029EA06090E6906FA0AF646EA0906CBF8CC
:10198000206004680E7924EA0C0406F00306BE40C9
:10199000264306604C68E4006FD53B4C266846F44D
:1019A00080462660246822F0030604F480440094F4
:1019B000364C3444A446D4F808489607360F0EFA3D
:1019C00006F7BC43324FB84201D100272EE0314F19
:1019D000B84201D1012729E02F4FB84202D1022796
:1019E00024E04AE02D4FB84201D103271EE02C4FDE
:1019F000B84201D1042719E02A4FB84201D1052786
:101A000014E0294FB84201D106270FE0274FB84212
:101A100001D107270AE0264FB84201D1082705E087
:101A2000244FB84201D1092700E00A27B7402743D5
:101A3000CCF80878204E34684F689C43FF0300D5EB
:101A40001C4334601C4E361D34684F689C43BF03F2
:101A500000D51C433460184E083634684F689C43E8
:101A6000FF0200D51C433460134E0C3634684F68B7
:101A70009C43BF0200D51C433460521C102AFFF463
:101A80003BAFBDE8F88F0000443802400030014011
:101A9000000002400004024000080240000C024026
:101AA000001002400014024000180240001C0240D6
:101AB0000020024000240240003C01400069084030
:101AC00000D001207047426931EA020200D10904C6
:101AD000816170470AB1816170470904FBE700002A
:101AE00001488068704700005800002090F83D20B1
:101AF000202A01D002207047242280F83D2002686D
:101B0000136823F0010313600268536A23F0100383
:101B100053620268536A0B43536201680A6842F0D9
:101B200001020A60202180F83D100020704790F8E3
:101B30003D20202A01D002207047242280F83D2039
:101B40000268136823F00103136003685A6A22F0E5
:101B50000F020A4391B2596201680A6842F0010219
:101B60000A60202180F83D100020704770B5040005
:101B700025D094F83D00002520B984F83C5020463B
:101B800000F04EF9242084F83D002068016821F01F
:101B9000010101602068016841F400410160206892
:101BA000016821F40041016000F0BAFA4D4A616811
:101BB000914201D84C4900E04C49884201D20120B1
:101BC00070BD4B492368B0FBF1F15E6826F03F061B
:101BD0000E435E606368934206D94FF4967359438F
:101BE0004FF47A73B1FBF3F12368491C1E6A26F0A7
:101BF0003F06314319626168914210D84900401E86
:101C0000B0FBF1F2521CC2F30B02042A01D20420F1
:101C100022E0B0FBF1F0401CC0F30B001CE0A26816
:101C2000F2B301EBC10303EB0116431EB3FBF6F362
:101C30005B1C43F480431B0549D092B301EBC10206
:101C400002EB0111401EB0FBF1F0401CC0F30B0091
:101C500040F4804040F400402168CA694CF6FF73AC
:101C60009A431043C861D4E9071001432068026811
:101C700022F0C00211430160D4E90301014320684E
:101C8000826848F2FF339A4311438160D4E9050129
:101C900008432168CA6822F0FF021043C86001E0CF
:101CA0000EE016E02068016841F001010160256442
:101CB000202084F83D00256384F83E50002070BD4C
:101CC00001EB4106431EB3FBF6F35B1CB3E70120B7
:101CD000C2E701EB4101401EB0FBF1F0401CC0F334
:101CE0000B00B7E7A086010080841E0000093D00BC
:101CF00040420F002DE9F84F1F4690468A460446A1
:101D0000DDF82890FFF7ECFE054694F83D0020280A
:101D10007FD11923012240492046009501F084FA21
:101D2000002876D194F83C00012872D0012084F874
:101D30003C0020680168C90703D1016841F0010136
:101D400001602068016821F400610160212084F8AD
:101D50003D00102084F83E0000262664C4F824804C
:101D60006785608D20852D48E0622B464A465146A6
:101D7000204601F0E5F990B920684169806900903A
:101D800036E02A464946204601F0CDFA50B1206C93
:101D9000042804D12068016841F400710160012029
:101DA000BDE8F88F606A216800780861606A401CAD
:101DB0006062618D491E6185218D491E89B2218530
:101DC00022685369DB435B070BD451B10078106183
:101DD000606A401C6062608D401E6085208D401EE0
:101DE00020852A464946204601F0F8F90028CED140
:101DF000208D0028C5D154F83D0B016841F40071D5
:101E00000160202004F81E09E67766770020C7E706
:101E1000FFE70220C4E70000020010000000FFFFFF
:101E2000F0B587B0044614216846FEF713FA1A4944
:101E3000206888422DD11948016841F004010160F1
:101E4000016801F004010591016841F001010160A0
:101E50000068122400F0010005904FF40070012585
:101E6000032604278DE8F10069460D48FFF73CFD85
:101E700028028DE8F10069460A48FFF735FD07485A
:101E80001030016841F400010160006800F40000B6
:101E9000059007B0F0BD0000005C00403038024003
:101EA00000080240000002400248816802781144A4
:101EB00081607047580000200B4810B5016841F45C
:101EC00000710160016841F480610160016841F4C2
:101ED00080710160032000F077F8002000F006F820
:101EE00000F024F8002010BD003C024070B50D4DFC
:101EF00004464FF47A712878B1FBF0F00A4909687A
:101F0000B1FBF0F000F0ADFC48B9102C07D2002274
:101F10002146501E00F038F800206C6070BD012092
:101F200070BD000058000020640000200E4808B575
:101F3000016841F480410160006800F48040009035
:101F40000948001F016841F08051016000680022CB
:101F500000F0805000901146052000F015F8BDE813
:101F60000840052000F002B844380240002809DB90
:101F700000F01F02012191404009800000F1E020A3
:101F8000C0F8001170470000F0B40E4B1B680C46FF
:101F9000C3F30223C3F10705042D00D90425191D3D
:101FA000072901D2002300E0DB1E012606FA05F115
:101FB000491E214099409E40761E16403143F0BC98
:101FC00002F0D4B80CED00E0064900F00702086802
:101FD0004FF6FF03184040EA0220034A104308600E
:101FE000704700000CED00E00000FA052DE9F04715
:101FF0000E46050065D0DFF81481D8F80000F7B26E
:1020000000F00F00B04207D288F80070D8F8000046
:1020100000F00F00B04254D128683D4C810712D522
:10202000400703D5206840F4E0502060287800077E
:1020300003D5206840F4604020602068A96820F043
:10204000F000084320602878C0072DD03049686828
:102050000839012812D0022813D0032811D00968AA
:10206000890700292DDA216821F00301014321604D
:10207000FFF736FD814641F2883A0EE00968890390
:10208000EFE709688901ECE7FFF72AFDA0EB0901FA
:10209000514502D90320BDE8F0872068696800F047
:1020A0000C00B0EB810FEFD1D8F80010404601F0E2
:1020B0000F01B14207D90770006800F00F00B0426D
:1020C00001D00120E7E72878400705D52068E968B6
:1020D00020F4E050084320602878000706D52068E7
:1020E000296920F4604040EAC100206000F038F81F
:1020F0002168084AC1F30311515CC84006490860D1
:1021000006480068FFF7F2FE0020C4E7003C0240EA
:1021100008380240AC500008640000205C00002039
:102120000448054900680968044AC1F38221515CEA
:10213000C84070476400002008380240BC500008C6
:102140000448054900680968044AC1F34231515CFA
:10215000C84070476400002008380240BC500008A6
:10216000154810B5006810F00C02144813D0411047
:10217000042A0FD0082A0ED10F4C241F226823688E
:1021800002F03F025B0207D52068C0F38810A0FB75
:10219000010106E0084610BD2168C1F38811A1FBCA
:1021A00000010023FEF71EF82168C1F30141491C1C
:1021B0004900B0FBF1F010BD083802400024F400E3
:1021C0002DE9F84F04006ED02078DFF83C93C0076B
:1021D000A9F104054AD009F104000168C1F38101A5
:1021E000012908D00068C0F3810002280AD1D9F87B
:1021F0000000400206D52868800337D560680028B3
:10220000E1D033E06068B0F5803F10D0B0F5A02F8A
:10221000286810D020F480302860286820F48020BE
:1022200028606068A8B1FFF75BFC06460DE02868EF
:1022300040F48030F4E740F480202860F7E700BFE6
:10224000FFF74EFC801B642873D828688003F7D5FD
:102250000CE0FFF745FC064605E000BFFFF740FC39
:10226000801B6428F0D828688003F7D42078DFF832
:102270009C8280074FF0000A3ED5A348001D0168EC
:1022800011F00C0F08D00068C0F3810002280BD1B8
:10229000D9F80000400207D42868800716D5E06806
:1022A000012800D112E02BE1E068B8B10120C8F8A4
:1022B0000000FFF715FC064605E000BFFFF710FC25
:1022C000801B0228C0D828688007F7D528682169B4
:1022D00020F0F80040EAC10028600DE0C8F800A036
:1022E000FFF7FEFB064604E0FFF7FAFB801B02281F
:1022F0001FD828688007F7D42078000722D5824E9F
:1023000083486169703671B101210160FFF7E8FB14
:10231000074604E0FFF7E4FBC01B022809D8306839
:102320008007F7D50EE0C0F800A0FFF7D9FB0746FD
:1023300005E082E0FFF7D4FBC01B02287DD830689F
:102340008007F7D42078400768D5DFF8BCB10027B4
:102350000BF13C0BDBF80000C0000BD4DBF80010E5
:1023600041F08051CBF80010DBF80000012700F0AD
:1023700080500090674E3068C00510D4306840F43B
:1023800080703060FFF7ACFB009005E0FFF7A8FB22
:102390000099401A022850D83068C005F6D55A4E28
:1023A000A0686C3601280FD00528306810D020F0C6
:1023B00001003060306820F004003060A068B8B1DF
:1023C000FFF78EFB00900FE0306840F00100F4E76B
:1023D00040F004003060F7E7FFF782FB0099411AF4
:1023E00041F28830814266D830688007F4D50EE02B
:1023F000FFF776FB009007E0FFF772FB0099411AA8
:1024000041F28830814256D830688007F4D42FB129
:10241000DBF8001021F08051CBF80010A069C8B3A0
:102420003949091D0968C1F3810102294AD00228EE
:10243000504607D0C8F8600000E03CE0FFF750FBD2
:1024400004463BE04746C8F86000FFF749FB0646F4
:1024500005E000BFFFF744FB801B02282BD828684B
:102460008001F7D4D4E907010843A16A2A4A490840
:1024700002EB0141626A41EA8211084394F82C1090
:1024800040EA0161C9F8001001203866FFF728FB17
:10249000044606E036E000BFFFF722FB001B0228DF
:1024A00009D828688001F7D52CE000BFFFF718FB9A
:1024B000001B022802D90320BDE8F88F286880019C
:1024C000F4D41FE00128F7D0D9F80000E26900F445
:1024D0008001914214D1226A00F03F0191420FD154
:1024E00047F6C071626A0140914209D1A26A00F4C4
:1024F0004031914204D1E16A00F07060884201D01D
:102500000120D9E70020D7E7043802400000474205
:10251000800E4742007000400000FFFF704700003F
:1025200038B5016804464A688868C043430606D542
:10253000C30704D1D3435B0601D4216C05E08307B4
:1025400008D4D3431B0605D4616C01B02046BDE816
:1025500030400847830603D5430601D5C30551D44F
:10256000D3439B064ED443060AD494F85130032B30
:1025700049D0636D43F004036365CB688B680093B7
:10258000830609D4636D43F0010363658B68009390
:102590000B6823F040030B60C00506D4606D40F06B
:1025A00008006065206880680090606D002829D070
:1025B0002068416821F0E0014160012084F8510069
:1025C000900701D4D00722D02068416821F0030190
:1025D0004160114DE06C40B10565E06CFEF7F6FF1F
:1025E00018B1606D40F040006065A06C002809D013
:1025F0000565A06CFEF7EAFF002803D0606D40F08F
:102600004000606538BDC8688868009038BD2046C5
:10261000FFF784FF38BD0000F137000870B50400F3
:1026200005D00025A56294F8510010B106E0012004
:1026300070BD84F85050204600F030F8022084F835
:1026400051002068016821F040010160D4E90101D6
:102650000843D4E903121143084361690843218BFD
:1026600001F400710843E1690843216A0843A16A43
:10267000084321680860A069042101EA1040616AEA
:102680000843216848602068C16921F40061C16184
:102690006565012084F85100002070BD10B586B03A
:1026A000044614216846FDF7D5FD17492068884285
:1026B00028D116480021026842F480520260006866
:1026C00000F48050059011481438026842F001026D
:1026D0000260006800F001000590E02000900220F8
:1026E000CDE90101032003900520049069460848C4
:1026F000FFF7FAF8002211462320FFF745FC2320BC
:10270000FFF734FC06B010BD0030014044380240F1
:1027100000000240F0B400248568134604261DB969
:102720004268B2F5827F0DD090F85020012A0FD078
:10273000012280F8502090F851700022012F0AD019
:10274000022431E080F85160F0BC0A4600F036B84F
:102750000220F0BC704771B16BB180F851604265E6
:1027600081638387C38702638286C2864264C168AD
:1027700019B10F4902E0012416E00E490164B5F5D4
:10278000004F04D101680B6823F480430B6001689B
:102790004B6843F060034B6001680B685B0603D431
:1027A0000B6843F040030B6080F850202046D0E7D0
:1027B000B5380008D538000870470000F0B590F82B
:1027C00050500024012D0CD0012580F8505090F875
:1027D000515000264768012D0BD0B7F5827F06D1F6
:1027E00001E00220F0BD87680FB9042D01D002245A
:1027F00029E0A9B1A2B19BB190F85150042D02D0AB
:10280000052580F85150466501638386C38682633F
:102810008387C387C16829B10D4901640D4904E06C
:10282000012410E00C4901640C49416401684A68C4
:1028300042F0E0024A6001680A68520603D40A685E
:1028400042F040020A6080F850602046F0BD00006F
:1028500055360008B536000885360008E53600080C
:10286000704710B5401EB0F1807F01D3012010BD2C
:102870004FF0E02460610F21601701F077FC002029
:10288000A06107202061002010BD70477047000044
:1028900070B590F83C20012A32D0012480F83C40E9
:1028A000022280F83D2003685A689D6822F0700675
:1028B0000A6832435A60134B02689A4214D0B2F14C
:1028C000804F11D0104B9A420ED0104B9A420BD031
:1028D0000F4B9A4208D00F4B9A4205D00E4B9A42AA
:1028E00002D00E4B9A4204D1496825F08003194367
:1028F000916080F83D40002180F83C10084670BD92
:10290000022070BD000001400004004000080040AB
:10291000000C00400004014000400140001800404D
:1029200010B5040003D094F83D0010B107E0012079
:1029300010BD002084F83C00204600F00DF8022075
:1029400084F83D00211D206801F07EF8012084F804
:102950003D00002010BD000008B501681948B1F124
:10296000804F0BD0184A914217D1016841F0020103
:102970000160006800F00200009008BD016841F0AD
:10298000010101600068002200F001000090114682
:102990001C20FFF7F9FA1C2010E00C4A9142ECD100
:1029A000016841F0040101600068002200F00400A9
:1029B000009011461E20FFF7E7FA1E20BDE80840F0
:1029C000FFF7D4BA4038024000040040000800403D
:1029D000022180F83D1001688A6802F00702062A89
:1029E00003D00A6842F001020A60012180F83D101C
:1029F000002070470168CA6842F00102CA6000689E
:102A0000816801F00701062903D0016841F0010146
:102A100001600020704770B5044690F83C00012822
:102A200017D0012584F83C50022084F83D0020682E
:102A3000826822F0770222F47F4282600868502880
:102A400030D00DDC20284DD005DC98B310283BD1C8
:102A500048E0022070BD302844D0402834D139E00D
:102A6000602828D0702806D0B0F5805F2CD0B0F553
:102A7000005F29D10AE0CB68D1E90121206801F08B
:102A800054F82068816841F0770109E0CB68D1E90A
:102A90000121206801F049F82068816841F48041F3
:102AA000816011E0CA684968206801F050F850213F
:102AB000206807E016E0CA684968206801F058F805
:102AC0006021206801F03BF884F83D50002084F834
:102AD0003C0070BDCA684968206801F038F84021A0
:102AE0002068EFE7226801461046EBE7704770B5B3
:102AF0000446006801694FF00005C943890715D4F1
:102B0000C168C943890711D4E91E016101202077FA
:102B1000206880698007204602D0FFF7E7FF04E0C5
:102B200000F098F8204600F096F8257720680169B3
:102B3000C943490717D4C168C943490713D46FF083
:102B400004010161022020772068806910F4407F31
:102B5000204602D0FFF7CAFF04E000F07BF82046D1
:102B600000F079F8257720680169C943090716D470
:102B7000C168C943090712D46FF00801016104203C
:102B800020772068C0698007204602D0FFF7AEFF9B
:102B900004E000F05FF8204600F05DF8257720683B
:102BA0000169C943C90617D4C168C943C90613D40A
:102BB0006FF010010161082020772068C06910F4CF
:102BC000407F204602D0FFF791FF04E000F042F87A
:102BD000204600F040F8257720680169C943C907FD
:102BE00008D1C168C943C90704D1891E01612046C3
:102BF00000F054F820680169C943090609D4C16886
:102C0000C943090605D46FF0800101612046FFF732
:102C10003CFE20680169C943490609D4C168C9431B
:102C2000490605D46FF040010161204600F090F89C
:102C300020680169C94389060BD4C168C943890664
:102C400007D46FF0200101612046BDE87040FFF716
:102C50001DBE70BD7047704710B504460068012264
:102C600000F056FF0B492068884202D00A4988428A
:102C700003D1416C41F4004141642068816801F056
:102C80000701062903D0016841F00101016000201D
:102C900010BD000000000140000401402DE9FF418B
:102CA000054600681C4CB0F1804F2BD1E068401CF9
:102CB000E0600A2826D14FF480411848FEF703FF50
:102CC00020690021401CC4E90310E16CD1B93C210A
:102CD00090FBF1F201FB1200626992FBF1F301FB40
:102CE0001323A169182291FBF2F602FB161204F1DC
:102CF0003001C2C9CDE90261CDE9000708A0216A0F
:102D000001F010FA11492868884202D1E06B401C9A
:102D1000E063BDE8FF8100000000002000180240D1
:102D20000A0D204461793A20257309536161743A90
:102D30002025643A25643A25642009416C61726D4E
:102D40003A2025643A25643A2564090000080040C9
:102D50007047704770B5026804461068D1685369BF
:102D600010F00F0F52D003F0010501F490762E43BE
:102D70005FD0C20705D0CA0503D5E26B42F001025D
:102D8000E263420705D5DA0703D0E26B42F00202A4
:102D9000E263820705D5DA0703D0E26B42F0040252
:102DA000E263020707D501F020022A4303D0E26B59
:102DB00042F00802E263E26B002A33D0800604D5B9
:102DC000880602D5204600F0FBFE20684069E16BD2
:102DD000C0F38010090700D428B3204600F0E2FEBB
:102DE0002068416949061AD5416921F040014161D5
:102DF000606BA0B11B490165606BFEF7E7FB002823
:102E000010D0606B016DBDE870400847830610D597
:102E10008B060ED52046BDE8704000F0D1BE20469E
:102E2000FFF797FF70BD2046FFF793FF0020E06398
:102E300070BD030606D50B0604D52046BDE87040DC
:102E400000F09EBF4006F3D54806F1D5D168204674
:102E500021F04001D160202184F8391000F04CF9B4
:102E600070BD0000953B000870B5040004D094F8D4
:102E70003900002510B106E0012070BD84F83850FB
:102E8000204600F023F8242084F839002068C16827
:102E900021F40051C160204600F0DEFE2068016987
:102EA00021F4904101612068416921F02A014161CA
:102EB0002068C16841F40051C160E563202084F8B6
:102EC000390084F83A00002070BD000070B586B06B
:102ED000064614216846FDF7BDF92349306888424B
:102EE0003FD122480025016841F4003101600068AB
:102EF00000F4003005901D481038016841F00101D0
:102F000001600068694600F0010005900C20009007
:102F10000220CDE901050320039007200490144806
:102F2000FEF7E2FC144C134820604FF00060C4E947
:102F300001054014C4E903506561A561E56125629E
:102F400020466562FEF724FC08B1FEF7ADF8746315
:102F5000002211462620A663FFF716F82620FFF769
:102F600005F806B070BD0000004400404038024043
:102F70000000024088600240680200202DE9F8430A
:102F8000044690F83A00994616460D46202852D13C
:102F9000BDB1B6B194F8380001284CD0012084F8B6
:102FA00038000027E763222084F83A002C34FEF72B
:102FB00097FD24F8026B804624F80A6B04F83879F0
:102FC00031E00120BDE8F883E08D401EE085A06877
:102FD0004346B0F5805F4FF000024FF020012046DD
:102FE000CDF8009004D000F0FCFE98B10320E9E792
:102FF00000F0F7FE0028F9D1206900282068406819
:1030000003D0C1B225F8011B0DE0C0F3080125F87B
:10301000021B08E0206900282068406801D000F009
:103020007F0005F8010BE08D0028CDD1202084F829
:103030003A000020C6E70220C4E770472DE9F843B4
:10304000044690F839001F4616460D46202850D1F8
:10305000B5B1AEB194F8380001284AD0012084F807
:1030600038004FF00008C4F83C80212084F8390073
:10307000FEF736FDA6848146E68484F8388026E093
:103080000120BDE8F883E08C401EE084A0684B4638
:10309000B0F5805F4FF000024FF0800120460097AE
:1030A00003D000F09EFEE8B90DE000F09AFEC8B92A
:1030B00028882168C0F308004860206908B16D1CA9
:1030C00005E0AD1C03E0216815F8010B4860E08CB9
:1030D0000028D8D14B46002240212046009700F01E
:1030E00080FE08B10320CCE7202084F839000020BE
:1030F000C7E70220C5E7000000680349884202D103
:1031000002A001F00FB870470044004063756D00E5
:10311000FEE701684A69D24352050FD46FF480621A
:103120004A61002140F8301F2022427381730269F6
:1031300042F00402026101730120704700207047D1
:10314000F8B50446C06A1E460D461746082807D043
:10315000012805D010F5803F02D0206B122804D141
:103160002068016841F480710160134600224FF02D
:1031700001112046009600F057F840B12068006821
:10318000C00502D54FF4007020640320F8BD20690B
:10319000B0F5804F0ED00620216800EAD51040F02F
:1031A000F000086133463A460B49204600F070F8BB
:1031B00078B902E005F0FE0000E0E8B2216808619D
:1031C000054933463A46891F204600F061F8002839
:1031D000DCD00120F8BD00000800010070B51646E3
:1031E0000D4604460DE02046FFF793FF08B101208D
:1031F00070BD681C05D0FEF773FC801BA84207D881
:1032000035B120684069C0434007ECD4002070BD50
:10321000002044F8300F20216173A073216941F030
:10322000200121612073E2E72DE9F0471E46904618
:103230000D460446C1F30747DDF8209008E0701CF6
:1032400006D0FEF74DFCA0EB0900B0420FD876B1D6
:103250002068012F18D0806925EA00000004000CC6
:1032600014D000214145EAD00020BDE8F0870020BD
:1032700044F8300F20216173A073216941F02001CF
:10328000216120730120F0E74069E5E70121E9E7CA
:103290002DE9F0479A4691460E46044600254FF028
:1032A0002008C1F3074725E020684069C043400576
:1032B00014D42068016841F40071016021686FF442
:1032C00080604861256384F83D8084F83E50206C1E
:1032D00040F00400206484F83C501FE0B9F1FF3F47
:1032E00008D0FEF7FDFBA0EB0A0149450CD8B9F167
:1032F000000F09D02068012F13D0806926EA000052
:103300000004000C0BD0CFE744F8305F84F80D8048
:10331000A573206940F02000206125730120BDE8DD
:10332000F0874069EAE770B516460D4604460DE0A1
:103330002046FFF7EEFE08B1012070BD681C05D0E5
:10334000FEF7CEFB801BA84207D835B12068406944
:10335000C0430006ECD4002070BD002044F8300FBC
:1033600020216173A073216941F020012161207344
:10337000E2E700007FB50024124800940194029413
:103380000F49039401604FF48031C0E901140461D6
:10339000047680F820400903C1620125C561491007
:1033A000C460816280F830404561FEF72FF80095D7
:1033B000CDE9015469460348FDF778FE7FBD000062
:1033C00000200140740000202DE9F04786B0142150
:1033D0006846FCF73FFF38480024016841F080014F
:1033E0000160016801F080010591016841F001016F
:1033F0000160016801F001010591016841F00401DB
:103400000160016801F004010591016841F00201C9
:103410000160016801F002010591016841F040017D
:1034200001600068DFF8948000F040000590002201
:1034300010214046FEF74EFBDFF884904FF4A04683
:10344000002231464846FEF745FBDFF878A04FF4EE
:10345000C047002239465046FEF73CFB01251A487A
:103460000095CDE9010469461848FEF73DFA1020A1
:103470000090CDE90154694640460394FEF734FAC2
:103480000096CDE90154694648460394FEF72CFAAC
:103490000097CDE90154694650460394FEF724FA9B
:1034A000002211460620FEF76FFD0620FEF75EFDA6
:1034B00006B0BDE8F0870000303802400008024046
:1034C00000040240001802400000111000000240F9
:1034D0000E4810B50C4901600D49416000214FF4C0
:1034E00080428160C0E9031241618161C161016272
:1034F000FEF73CFB00210548FEF7F8FABDE8104056
:1035000000210248FEF713BB005C0040BC00002015
:10351000A08601000A4809494FF4007201600021A9
:1035200041608160C1600161C0E9051201624162D0
:1035300081620A21C162FFF771B8000000300140CA
:103540001001002010B586B00024124800940194A8
:103550000294039404944FF08041059401604FF469
:103560007A71C0E9011442F2D001C0E90314846108
:10357000FFF7D6F94FF48050009069460548FFF7F1
:103580004AFA049404A903480594FFF781F906B0A8
:1035900010BD00006801002010B586B0002412485C
:1035A000009401940294039404940E4905940160DC
:1035B0006421C0E9011442F2D001C0E9031484611E
:1035C000FFF7AEF94FF48050009069460648FFF7C8
:1035D00022FA2020CDE9040404A90348FFF758F992
:1035E00006B010BD00040040A801002010B586B050
:1035F00000241248009401940294039404940E4908
:103600000594016042F2D001C0E9011442F2107148
:10361000C0E903148461FFF783F94FF480500090F0
:1036200069460648FFF7F7F9049404A9034805948E
:10363000FFF72EF906B010BD00080040E801002099
:10364000FEE77047704770470148FEF769BF00000A
:10365000100100200168C968826B1180816B891C90
:103660008163C18F491EC187C18F002909D10168BB
:103670004A6822F040024A60C18E002901D100F060
:1036800049B870470168097B826B1170816B491CD6
:103690008163C18F491EC187C18F002909D101688B
:1036A0004A6822F060024A60C18E002901D100F010
:1036B00031B87047016B02680988D160016B891CC1
:1036C0000163C18E491EC186C18E002909D10168DE
:1036D0004A6822F080024A60C18F002901D100F0BF
:1036E00019B87047016B026809781173016B491CA6
:1036F0000163C18E491EC186C18E002909D10168AE
:103700004A6822F080024A60C18F002901D100F08E
:1037100001B8704738B50446214845F6C0510068E5
:10372000B0FBF1F0642148430090FEF7D9F902465E
:103730002068416821F020014160009888B1401E56
:103740000090206880688007F7D56421204600F04B
:1037500085F818B1606D40F020006065A06828B160
:1037600008E0606D40F020006065EEE72068C16809
:1037700080680090616D012029B184F851002046D5
:10378000FEF7CCFE38BD94F8511084F8510004299E
:10379000204602D0FFF764F838BDFFF70DF838BDBA
:1037A0006400002038B504460068416821F06001DB
:1037B0004160FEF795F902466421204600F020F8AA
:1037C00018B1606D40F020006065A06818B92068ED
:1037D000C16880680090012084F85100606D002865
:1037E000204602D0FEF79AFE38BDFEF7E5FF38BD51
:1037F00010B5806B0021C187C186FEF78FFE10BD1A
:10380000F8B5044640684FF48273984221D1A0680D
:103810004FF48065B0F5004F01D0A8420AD120686E
:10382000066826F0400606606068984211D1A068DC
:10383000A8420ED000920B4600228021204600F0C4
:1038400059F8002804D0606D40F020006065032026
:10385000F8BD00920B4600220121EFE738B504467F
:103860001248134B0068B0FBF3F04FF47A735843DF
:1038700000906068B0F5827F0DD10B460092002267
:103880008021204600F036F870B1606D40F02000D5
:103890006065032038BD009830B1401E009020685C
:1038A0008068C0430006F6D5002038BD64000020C3
:1038B00000366E010168C968826B1180816B891CBA
:1038C0008163C18F491EC187C18F002901D1FFF7D4
:1038D00069BF70470168097B826B1170816B491C5D
:1038E0008163C18F491EC187C18F002901D1FFF7B4
:1038F00059BF70472DE9F0411D4617460E46044654
:10390000DDF8188008E0681C06D0FEF7E9F8A0EBA7
:103910000800A8420BD255B12068806836EA000042
:1039200030D00020B842EED10020BDE8F081206800
:10393000416821F0E00141606068B0F5827F0BD101
:10394000A068B0F5004F02D0B0F5806F04D12068B8
:10395000016821F040010160A06AB0F5005F09D163
:103960002068016821F4005101602068016841F479
:1039700000510160012084F85100002084F85000BB
:103980000320D2E70120CDE77047FEF78DBA000093
:1039900030B593B030216846FCF75CFC14210CA8CC
:1039A000FCF758FC19480025016841F0805101607E
:1039B000006800F0805011901548016841F44041C2
:1039C00001600068022400F440401190012003903F
:1039D00010200490009406940820CDE90750A820F8
:1039E000CDE9090404200B906846FEF7E9FB0CA919
:1039F0000F2081E831004FF4A0500F90E0021090AA
:103A000005210CA8FEF7F2FA13B030BD4038024091
:103A1000007000400548016841F4700101600349ED
:103A20004FF00060803908607047000088ED00E0CA
:103A30000148FFF75CB80000680100200148FFF76B
:103A400056B80000E8010020F0B50268254C264D6C
:103A5000264E274F274B4FF0804CA04209D060459F
:103A600007D0A84205D0B04203D0B84201D0984256
:103A700004D122F0700E4A6842EA0E02A0421BD026
:103A8000604519D0A84217D0B04215D0B84213D023
:103A9000984211D0184DA8420ED0184DA8420BD014
:103AA000174DA84208D0174DA84205D0164DA84280
:103AB00002D0164DA84203D122F44075CA682A43A9
:103AC0004D6922F080022A4302608A68C2620A6855
:103AD0008262A04201D0984201D1096901630121AB
:103AE0004161F0BD000001400004004000080040BA
:103AF000000C00400004014000400140004401402F
:103B00000048014000180040001C00400020004018
:103B100010B501F01F030121046A99408C4304622F
:103B2000016A9A401143016210BD10B5846842EAEF
:103B3000032224F47F440A432243826010BD82683A
:103B400022F070020A4342F007018160704710B50D
:103B5000036A046A24F001040462846924F0F00416
:103B600044EA021423F00A020A438461026210BD8F
:103B700010B5036A23F0100303628369046A23F417
:103B8000704343EA023224F0A00343EA0111826148
:103B9000016210BD10B5806B0021C185C184FFF7A3
:103BA000D8F810BD0168CA6822F49072CA60016832
:103BB0004A6922F001024A61202180F83A107047D8
:103BC00010B590F83A10222901D0022010BD81686A
:103BD000B1F5805F11D00169002901681FD04968E3
:103BE00001F07F03816A4A1C82620B70C18D491EFD
:103BF0000904090CC18518D02BE00269816A002AEA
:103C00000268526805D0D2B20A80816A491C81627A
:103C1000ECE7C2F308020A80816A891CF7E74A6868
:103C2000816A4B1C83620A70E0E70168CA6822F06F
:103C30002002CA600168CA6822F48072CA60016802
:103C40004A6922F001024A61202180F83A10FFF708
:103C5000F4F9002010BD00002DE9F0410446006891
:103C60000169E26821F44051114301612169A068B2
:103C7000E26908436169114308432168CA6849F24F
:103C80000C639A430243CA6020684169A26921F427
:103C9000407111434161E069192764253226B0F56E
:103CA000004F354A354920684FF0000806D0884259
:103CB00001D0904236D1FEF743FA35E0884201D078
:103CC000904202D1FEF73CFA01E0FEF729FA616862
:103CD0004A18A0FB070148EB0803FCF783FA0146EA
:103CE000B0FBF5F00201B1FBF5F06FF0180358439B
:103CF00001EB800006EBC000B0FBF5F000F0F8002F
:103D000002EB4002B1FBF5F0584301EB800006EBFB
:103D1000C000B0FBF5F000F0070021681044886097
:103D2000BDE8F081FEF7FCF961688B0F8A00A0FB0B
:103D30000701FCF757FA0146B0FBF5F06FF01802E7
:103D4000504301EB800006EB0010B0FBF5F000F0F3
:103D5000F002B1FBF5F002EB0012B1FBF5F06FF0F1
:103D60001803584301EB800006EB0010B0FBF5F0A0
:103D700000F00F00D1E700000014014000100140E6
:103D800090F83910212901D0022070478168B1F5DF
:103D9000805F016A0BD04A1C026202680978516098
:103DA000C18C491E0904090CC1840ED017E0098892
:103DB0000268C1F30801516001690029016A02D05B
:103DC000491C0162ECE7891CFBE70168CA6822F024
:103DD0008002CA600068C16841F04001C1600020F3
:103DE00070472DE9F041984617460E460446069D59
:103DF0001DE0681C1BD02DB1FDF772FEA0EB080082
:103E0000A84214D92068C16821F4D071C16020682B
:103E1000416921F001014161202084F8390084F8D2
:103E20003A00002084F838000320BDE8F0812068C3
:103E3000006836EA000004D00020B842D9D0002043
:103E4000F3E70120F9E700002DE9F041534C00258C
:103E5000E06C012802D0E564BDE8F08150A000F0DC
:103E600061F94E494FF6FF730122491D5B48A56475
:103E7000FFF784F86079182630383C27A0640128C1
:103E80002BD157A000F04EF95AA000F04BF943494E
:103E90005DA02C31E562FCF7E9F95CA0E16A00F075
:103EA00041F93E4958A02831FCF7E0F9D4E90A214C
:103EB0005BA000F037F9E06A90FBF6F106FB110118
:103EC000A161A06A90FBF7F207FB120259A06261A0
:103ED00000F028F9A06C401CA06402283ED15BA031
:103EE00000F020F95EA000F01DF92C4946A0383101
:103EF000A563FCF7BBF960A0A16B00F013F927499B
:103F000041A034316563FCF7B1F9D4E90D215FA01C
:103F100000F008F921493CA030312563FCF7A6F9EF
:103F2000D4E90D215EA0236B00F0FCF8A06B90FBA0
:103F3000F6F106FB1101A163606B90FBF7F207FB42
:103F400012026263206B90FBF7F307FB130359A087
:103F5000236300F0E7F8A06C401CA064032813D191
:103F60005BA000F0DFF80D4927A0FCF77FF90B48B4
:103F70000078E061FDF718F8D4E9071259A000F0C5
:103F8000D1F8A06C401CA06404287FF465AFE56400
:103F90002561BDE8F04158A000F0C4B80000002041
:103FA0000A0D20536574204D656E753A0A0D312E49
:103FB000736574436C6F636B0A0D322E73657441C5
:103FC0006C61726D0A0D332E7365744461790A0D4C
:103FD000342E457869740A09000000002802002088
:103FE0000A0D436C6F636B2053657474696E67735D
:103FF0003A0A0A000D09436C6F636B3A205F5F3A1F
:104000005F5F200A0D090900256400000D09436C5B
:104010006F636B3A2025643A5F5F200A000000005E
:104020000D09436C6F636B3A2025643A2564200ABE
:104030000000000053657420436C6F636B20746F45
:104040003A2025643A25643A303000000A0D416C6C
:1040500061726D2053657474696E67733A0A0A0061
:104060000D09416C61726D3A205F5F3A5F5F3A5FA4
:104070005F200A0D090900000D09416C61726D3A5B
:104080002025643A5F5F3A5F5F200A000D09416CAA
:1040900061726D3A2025643A25643A5F5F200A0018
:1040A0000D09416C61726D3A2025643A25643A2508
:1040B00064200A00416C61726D20736574746564DC
:1040C00020746F3A2025643A25643A256400000084
:1040D0000A0D4461792053657474696E67733A0AF6
:1040E0000A0000005365742044617920746F3A20FF
:1040F0002564202D202573000A0D4578697420530E
:10410000657474696E67732C20436C6F636B3A4FF0
:104110004E0A0A000148FEF71DBE000028020020DA
:10412000FEE700000FB4054B10B503A9044A02983E
:1041300000F0FEF810BC5DF814FB0000A14A000876
:104140006C0000200FB4084B10B504A902AA039814
:1041500000F0EEF8044602A9002000F080FC2046A2
:1041600010BC5DF814FB00005F4A00080907090E47
:10417000002804DB00F1E02080F80014704700F014
:104180000F0000F1E02080F8141D704702E008C81D
:10419000121F08C1002AFAD170477047002001E0C1
:1041A00001C1121F002AFBD1704700002DE9FF5FFB
:1041B00082B00021DDE90430020DDDF840B0034398
:1041C00018D044F61050A2F2FF3242431514119851
:1041D00001281FD0A5EB0B00401C5FEA000A4FF03E
:1041E00000064E4FDFF83891B046504615D5CAF15B
:1041F000000413E0119801244AA3012801D16FEAB9
:104200000B010298119AC0E90031C0E9024206B0E0
:10421000BDE8F09FCBF10000DFE704460021404AF3
:10422000491842EB0450CDE9001012E0E00707D036
:1042300032463B4640464946FCF7BAFA8046894634
:1042400032463B4610461946FCF7B2FA06460F4680
:104250006410002CEAD1DDE90401DDE90023BAF1A4
:10426000000F06DAFCF7A4FA42464B46FCF7A0FA28
:1042700005E0FCF7B1F842464B46FCF7ADF80446C2
:104280000E460022284BFCF71DFB03D84FF0FF30F1
:10429000014607E00022254B20463146FCF7E1F9B4
:1042A000FCF7F8FA102409E0002C0ADB0A220023AC
:1042B000FBF798FF039B30321A55641E50EA010247
:1042C000F2D1641C039AC4F111031444119A012A17
:1042D00003D0012208430DD10AE0084304D0002096
:1042E0004FF0110B119072E7A3EB0B056D1E0DE063
:1042F0005B4504DD4FF0000205F1010504E003DA3F
:104300004FF00002A5F10105002AECD002981199A6
:10431000C0E90231C0E9004579E70000000014401F
:104320000000F03F300000000000F0430000E03FDC
:104330002DE9FF4F95B09B468946064600250FE2C2
:10434000252877D100242746F84A0121059400E06A
:10435000044316F8013F203B01FA03F01042F7D165
:1043600030782A2811D06FF02F033078A0F1300276
:10437000092A16D8059A44F0020402EB820203EBE4
:1043800042021044761C0590EFE759F8042B059281
:10439000002A03DA504244F40054059044F0020429
:1043A000761C30782E2816D116F8010F44F004043C
:1043B0002A280DD06FF02F023078A0F13003092B9E
:1043C00009D807EB870302EB4303C718761CF3E712
:1043D00059F8047B761C30786C280FD006DC4C280A
:1043E00017D068280DD06A2814D104E0742810D0A2
:1043F0007A280FD10DE044F400140AE044F480144C
:1044000001E044F440147278824202D104F5801431
:10441000761C761C307866280BD013DC582877D0B1
:1044200009DC002875D04528F6D04628F4D0472866
:104430001AD19DE118E0632835D0642879D0652829
:1044400012D195E1702873D008DC6728F1D0692873
:104450006FD06E280DD06F2806D1B5E073282CD010
:10446000752875D0782874D05A46179990476D1CD6
:1044700075E1C4F30250022809D003280DD0D9F801
:10448000001004280DD00D6009F1040967E1D9F886
:104490000010EA17C1E90052F6E7D9F800100D80C4
:1044A000F2E70D70F0E719F8041B8DF800100020FA
:1044B0008DF80100EA46012003E059F804AB4FF003
:1044C000FF3061074FF0000102D40DE008F1010157
:1044D0008846B9420FDA8045F8DB1AF8081000293F
:1044E000F4D108E008F1010188468142FADB1AF8AC
:1044F00008100029F6D105985B46A0EB0807214675
:104500003846179A00F094FA284400EB080507E0B3
:104510004DE029E10DE01AF8010B5A461799904732
:10452000B8F10108F7D25B4621463846179A13E1E5
:1045300042E00A220092C4F302524FF0000A022A1B
:1045400008D059F804CB032A4FEAEC710AD00DE0E9
:1045500029E02AE009F1070121F00702F2E802C18F
:10456000914609E00FFA8CFC4FEAEC71042A03D162
:104570004FFA8CFC4FEAEC71002907DA0A46002159
:10458000DCF1000C61EB02012D2202E0220504D5D2
:104590002B228DF80420012203E0E20701D0202223
:1045A000F7E7904659E00A2102E010220DE01021C1
:1045B0004FF0000A00910BE010224FF0000A44F087
:1045C00004040827009203E008224FF0000A00923A
:1045D000C4F30252022A05D059F804CB0021032A61
:1045E00008D009E009F1070121F00702F2E802C151
:1045F000914605E01FFA8CFC042A01D10CF0FF0C57
:104600004FF00008220728D5702806D0009B83F0C1
:10461000100353EA0A0305D00EE040228DF804206F
:10462000012208E05CEA010206D030228DF8042065
:104630008DF8050002229046009B83F0080353EAA0
:104640000A030AD15CEA010201D1620705D53022D2
:104650008DF804204FF001087F1E582804D034A0A4
:1046600003900EA802900DE036A0F9E7534660468D
:10467000009AFBF7B7FD84460398825C0298401EBF
:10468000029002705CEA0100F0D1029806A9081AB3
:1046900000F1200A600702D524F4803400E00127ED
:1046A000574502DDA7EB0A0000E0002000EB0A01FD
:1046B000009005984144401A0590E00306D45B46FB
:1046C0002146179A059800F0B3F90544002706E043
:1046D00001A85A46C05D179990476D1C7F1C47453D
:1046E000F6DBE0030CD55B462146179A059800F0EF
:1046F0009FF9054404E030205A46179990476D1CF5
:104700000099481E00900029F5DC08E00298029903
:104710005A460078491C0291179990476D1CBAF1CE
:104720000001AAF1010AF1DC65E10000092801009D
:104730003031323334353637383961626364656617
:1047400000000000303132333435363738394142D9
:10475000434445460000000000F058F90544761C2B
:10476000307800287FF4ECAD19B02846BDE8F08F12
:10477000620700D4062709F1070222F0070CFCE8C3
:104780000223E14603F000485FEA080C02D00FF272
:10479000702C0DE05FEA045C02D50FF2682C07E094
:1047A0005FEAC47C02D00FF2602C01E0AFF2700C23
:1047B0004FF0FF3823F00043CDF850C065280CD0EF
:1047C00006DC452809D046281DD047283DD13DE0CC
:1047D000662818D067287ED138E00021112F01DB30
:1047E000112000E0781CCDE9000106A90EA8FFF712
:1047F000DDFCDDE90F010E9A03910021009207F123
:10480000010A04914DE04FF000400097CDE90110FE
:1048100006A90EA8FFF7CAFCDDE90F0203920E9B62
:1048200011990022DDF80CA00093049211B9791CB3
:1048300000EB010AB7EB0A0004D4C0F1FF3007F126
:10484000010A0490AAEB0700019044E0012F00DA6E
:1048500001270021112F01DD112000E03846CDE9AC
:10486000000106A90EA8FFF7A1FCDDE90F010E9AD1
:104870000391002104910092BA4621070CD40399B8
:10488000514500DA8A46BAF1010F05DD009AAAF116
:104890000101515C302908D0B84202DA10F1040F4E
:1048A00006DA0121CDE9011015E0AAF10101E9E7DD
:1048B000002805DC049901440491AAEB000102E000
:1048C000411C514500DD8A460499401A401C019064
:1048D0004FF000400290200704D40198504501DBBE
:1048E000CDF8048000208DF84F0002980DF14F079D
:1048F000B0F1004F25D02B200E9002984FF0020807
:1049000000280CDA404202902D200E9007E00A2188
:104910000298FBF7FCFD3031029007F8011DB8F159
:104920000001A8F10108F2DC02980028EFD1791EFD
:104930000E980870307800F0200040F0450007F82D
:10494000020D12A8C01B00F107081498007800B1EE
:10495000012000EB0A01019801EBE0710598414448
:10496000401A401E0590E00306D45B462146179A84
:10497000059800F05DF805441498007818B15A467F
:10498000179990476D1CE00324D55B462146179A82
:10499000059800F04DF805441CE00498002807DB5A
:1049A000DDE90301884203DD0098405C179901E0CE
:1049B000179930205A469047049805F10105401C8C
:1049C00004900198401E019004D12E205A46179958
:1049D00090476D1CBAF10001AAF1010ADDDC05E087
:1049E00017F8010B5A46179990476D1CB8F1000152
:1049F000A8F10108F4DC5B462146179A0598ABE65E
:104A00002D0000002B000000200000002DE9F041E7
:104A1000044600251E461746880404D405E039469E
:104A20002020B0476D1C641EF9D52846BDE8F081F2
:104A30002DE9F041044600251E469046C80301D5E5
:104A4000302700E02027880404D505E04146384699
:104A5000B0476D1C641EF9D52846BDE8F0810A6890
:104A6000531C0B60107070471CB500208DF80000BF
:104A70000A480068016840684FF6FF7401902346B9
:104A8000012269460548FEF779FA23460122694664
:104A90000248FEF7D3FA9DF800001CBD2802002052
:104AA00013B54FF6FF73012269460248FEF7C6FAB6
:104AB00000981CBD280200201FB5024603A16846CD
:104AC000FFF740FB684600F07FF81FBD256400003B
:104AD00010B53220FCF7C6FE302000F035F8052076
:104AE000FCF7C0FE302000F02FF80120FCF7BAFEE2
:104AF000302000F029F80A20FCF7B4FE202000F056
:104B000023F80A20FCF7AEFE282000F01DF8012053
:104B1000FCF7A8FE082000F017F80120FCF7A2FE21
:104B2000012000F011F80120FCF79CFE0120FCF7A9
:104B300099FE062000F008F80120FCF793FEBDE87E
:104B400010400C20AFF300801CB500F0F00141F0E4
:104B50000C028DF8042041F0080100018DF80510C9
:104B600040F00C018DF8061040F008008DF80700A9
:104B700064200090042301AA4E210248FDF7BAF8F0
:104B80001CBD0000BC0000201CB500F0F00141F08D
:104B90000D028DF8042041F0090100018DF8051087
:104BA00040F00D018DF8061040F009008DF8070067
:104BB00064200090042301AA4E210248FDF79AF8D0
:104BC0001CBD0000BC00002010B5044602E0641CBF
:104BD000FFF7DAFF20780028F9D110BD491E01F057
:104BE0000F01012804D041F0C00000BFFFF7ACBFA7
:104BF00041F08000FAE700002DE9F84FFDF75CF97D
:104C0000FEF7C6FEFEF7E0FBF9480025016841F417
:104C10000011016000682A4600F400100090294647
:104C20001020FDF7B1F91020FDF7A0F9FEF7A2FB67
:104C3000FEF74EFCFEF76EFCFEF784FCFEF7ACFCC4
:104C4000FEF7D4FCEC48EB4901604FF4E131C0E9D8
:104C500001150C21C560C0E904518561C561FEF7ED
:104C600003F9E648FCF736FCE348C038FDF7C2FE1E
:104C7000E1488038FDF7ACFEDF484038FDF7BAFE6A
:104C8000DD480021C038FDF7E7FFFFF721FFDC4CCE
:104C90001720A0613B20606137202061D9A0FFF779
:104CA00041FA3027E564E7706420FCF7DBFDD34868
:104CB000032204F150019C30FDF72CFD40F6AC506E
:104CC000FCF7D0FD04F1500004F1100302782272C9
:104CD0004178E1718078A07183E80700DFF83C93A8
:104CE0004FF47A7A03264FF48048206C30B1CC49D7
:104CF0000140012967D0C0077DD04CE120693B28E5
:104D000003DD6069401CC4E9045060693B2803DD91
:104D1000A069401CC4E90550A069172815DD4FF4AF
:104D2000C04B01225946BF48FCF7D4FEA56165611E
:104D30002561E069401CE061FCF736F9FCF7B0F84A
:104D400000225946B748FCF7C5FE01210846FFF787
:104D500045FFB5A0FFF738FFA0694FF007010A280B
:104D600006DA0220FFF73AFF0020FFF7A5FE082130
:104D70000220FFF733FFA069FFF79EFE60694FF046
:104D80000A010A2806DA0220FFF728FF0020FFF7B1
:104D900093FE0B210220FFF721FF6069FFF78CFED5
:104DA00020694FF00D010A2806DA0220FFF716FFEE
:104DB0000020FFF781FE0E210220FFF70FFF206980
:104DC000FFF77AFEE7E001210846FFF707FF9AA008
:104DD000FFF7FAFE01210220FFF700FF9AA0FFF77C
:104DE000F3FE606C90FBF6F106FB1101012910D077
:104DF00090FBF6F100E050E006FB110102290BD018
:104E000090FBF6F106FB110010B3E06B05283BD0D8
:104E10003CE0401C606439E003210220FFF7DEFE25
:104E20008AA0FFF7D1FEA06A4FF00A010A2806DA2D
:104E30000220FFF7D3FE0020FFF73EFE0B210220E9
:104E4000FFF7CCFEA06AFFF737FEA06A60611DE0A5
:104E500003210220FFF7C2FE7DA0FFF7B5FEE06A46
:104E60004FF007010A2806DA0220FFF7B7FE0020FC
:104E7000FFF722FE08210220FFF7B0FEE06AFFF7ED
:104E80001BFEE06AA06101E0256425615046FCF745
:104E9000E9FC2069401D20617DE001210846FFF703
:104EA0009DFE6CA0FFF790FE01210220FFF796FE09
:104EB00065A0FFF789FE606C90FBF6F106FB11011F
:104EC00001290ED090FBF6F106FB1101022924D036
:104ED00090FBF6F106FB1100D8B3E06B052855D026
:104EE00056E003210220FFF779FE5EA0FFF76CFE7B
:104EF000606A4FF00D010A2806DA0220FFF76EFE05
:104F00000020FFF7D9FD0E210220FFF767FE606A3F
:104F1000FFF7D2FD606A20633AE003210220FFF729
:104F20005DFE4AA0FFF750FEA06A4FF00A010A2872
:104F300006DA0220FFF752FE0020FFF7BDFD0B212D
:104F40000220FFF74BFEA06AFFF7B6FDA06A606380
:104F50001EE0FFE703210220FFF740FE3CA0FFF721
:104F600033FEE06A4FF007010A2806DA0220FFF755
:104F700035FE0020FFF7A0FD08210220FFF72EFEDE
:104F8000E06AFFF799FDE06AA06301E0256425610E
:104F90005046FCF767FC1A4932230122C91C164807
:104FA000FDF7ECFFE0783038E064012864D000BF02
:104FB000FBF738FF41464846FCF780FD012813D136
:104FC000606C90FBF6F106FB1100022802D0E06B4A
:104FD000052809D1002241464846FCF77BFD22A066
:104FE000FFF7A0F801206064FBF770FF7DE643E067
:104FF00030380240004400402802002074000020A5
:10500000000000200D0A4C65747320636F6F6B20E5
:1050100074686520636C6F636B2E2E000004024081
:105020000100008000180240536161743A2053610E
:1050300020446B20536E0000417961723A20536125
:1050400020446B20536E0000533A00004D494E003F
:1050500048525300416C726D3A20536120446B20DA
:10506000536E000053454300416C61726D204D75D5
:105070007465642E20200A00FEF7E6FE05A0FFF707
:1050800051F8A06C042802D00020BDE8F88FE7702A
:105090008EE700002E2E2E517569747465642E2ED5
:1050A0002E0000000006101600061016000000007A
:1050B00000000000010203040607080900000000C8
:1050C00001020304DDDDDDDDDCBBBBDDDDDDDDDDBF
:1050D000DDDDDDDD98888888888888887777777730
:1050E00077888888855555566666666666666666FC
:1050F00066688888833333322222222222222222A7
:105100002228888D20202020204D6F6E6461792018
:10511000202020200000000038510008000000205E
:10512000740000008C410008AC510008740000209D
:10513000540600009C4100080030300000000000D0
:10514000000000000000000000000000000000005F
:1051500000000000010000000451000800000000F1
:10516000000000000000000005000000000000003A
:10517000000000000000000000000000010000002E
:10518000000000000000000000000000000000001F
:105190000100000010000000000000000024F400E6
:0C51A00000000000000000000000000003
:04000005080001AD41
:00000001FF
